:100000000C9434000C943E000C943E000C943E0082
:100010000C943E000C943E000C943E000C943E0068
:100020000C943E000C943E000C943E000C943E0058
:100030000C943E000C943E000C943E000C943E0048
:100040000C943E000C943E000C943E000C943E0038
:100050000C943E000C943E000C943E000C943E0028
:100060000C943E000C943E0011241FBECFEFD8E04C
:10007000DEBFCDBF0E9440000C947F000C940000B6
:1000800084B1806284B985B18F7D85B987B1826082
:1000900087B988B18D7F88B92FEF89E698E1215023
:1000A00080409040E1F700C0000098B182E08927CD
:1000B00088B92FEF89E698E1215080409040E1F720
:1000C00000C0000088B18D7F88B92FEF89E698E1E4
:1000D000215080409040E1F700C0000095B180E2DF
:1000E000892785B92FEF89E698E12150804090401B
:1000F000E1F700C0000085B18F7D85B9CDCFF894C0
:02010000FFCF2F
:00000001FF
