S00B00004C45442E7372656344
S11300000C9434000C943E000C943E000C943E007E
S11300100C943E000C943E000C943E000C943E0064
S11300200C943E000C943E000C943E000C943E0054
S11300300C943E000C943E000C943E000C943E0044
S11300400C943E000C943E000C943E000C943E0034
S11300500C943E000C943E000C943E000C943E0024
S11300600C943E000C943E0011241FBECFEFD8E048
S1130070DEBFCDBF0E947E000C94AC000C94000047
S113008095B180E2892785B92FEF8BE49DE121505A
S113009080409040E1F700C0000085B18F7D85B9B4
S11300A02FEF8BE49DE1215080409040E1F700C0A8
S11300B00000089595B180E2892785B92FEF83EC7C
S11300C099E0215080409040E1F700C0000085B1E4
S11300D08F7D85B92FEF8BE49DE1215080409040C6
S11300E0E1F700C0000008952FEF83ED90E3215065
S11300F080409040E1F700C00000089584B1806220
S113010084B985B18F7D85B92FEF83EC99E02150B7
S113011080409040E1F700C000000E9440000E942F
S11301205A000E945A000E945A000E9474000E94C1
S11301305A000E9440000E945A000E9474000E94CB
S113014040000E945A000E9474000E9440000E94D5
S10F015040000E944000D8CFF894FFCF7C
S9030000FC
