S012000030352D7365676D656E742E737265638D
S11300000C9434000C9451000C9451000C94510045
S11300100C9451000C9451000C9451000C94510018
S11300200C9451000C9451000C9451000C94510008
S11300300C9451000C9498000C9451000C945100B1
S11300400C94CA000C9451000C9451000C9451006F
S11300500C9451000C9451000C9451000C945100D8
S11300600C9451000C94510011241FBECFEFD8E022
S1130070DEBFCDBF11E0A0E0B1E0E2EBF2E002C0F0
S113008005900D92AE30B107D9F721E0AEE0B1E0B2
S113009001C01D92AF30B207E1F70E9478000C94C2
S11300A057010C940000FC01408121E030E002C0C3
S11300B0220F331F6A95E2F7242B20830895FC0155
S11300C0908121E030E002C0220F331F6A95E2F7ED
S11300D02095292320830895FC01408121E030E00C
S11300E002C0220F331F6A95E2F7242B2083089560
S11300F00E94D40060E080E00E94E400E1E8F0E0C7
S113010080818B7F8083808183608083EFE6F0E051
S113011080818160808385B5897F85BD85B5816057
S113012085BDEEE6F0E08081816080837894FFCF26
S11301301F920F920FB60F9211242F933F934F9358
S11301405F936F937F938F939F93AF93BF93EF933B
S1130150FF9380910E018F5F80930E0180910E01B9
S11301608A3010F010920E0180910E0160E00E941E
S1130170E400FF91EF91BF91AF919F918F917F9197
S11301806F915F914F913F912F910F900FBE0F9000
S11301901F9018951F920F920FB60F9211240F9073
S11301A00FBE0F901F90189564E08AE290E00E94C1
S11301B0530067E08AE290E00E94530060E084E22A
S11301C090E00E94530008951F93CF93DF93E82F8C
S11301D0F0E0EC5FFE4F1081E62FF0E0E050FF4FBF
S11301E0D08164E08BE290E00E945F0067E08BE2E4
S11301F090E00E945F0060E085E290E00E945F0072
S113020085E08A95F1F70000C8E010FD06C060E0C3
S113021085E290E00E945F0005C060E085E290E026
S11302200E946C0085E08A95F1F7000067E08BE29C
S113023090E00E946C0085E08A95F1F7000067E089
S11302408BE290E00E945F001695C150F1F6C8E081
S1130250D0FD06C060E085E290E00E945F0005C02A
S113026060E085E290E00E946C0085E08A95F1F7F9
S1130270000067E08BE290E00E946C0085E08A95C4
S1130280F1F7000067E08BE290E00E945F00D695F2
S1130290C150F1F664E08BE290E00E946C0085E0CE
S11302A08A95F1F70000DF91CF911F910895F8949A
S10502B0FFCF7A
S11102B210204080039F230D9949401F01082E
S9030000FC
